:020000040800F2
:1000000000A000203D27000885270008852700085C
:1000100085270008852700088527000800000000C4
:10002000000000000000000000000000852700081C
:1000300085270008000000008527000885270008A4
:1000400000000000000000000000000000000000B0
:1000500000000000000000000000000000000000A0
:100060000000000000000000000000000000000090
:100070000000000000000000000000000000000080
:100080000000000000000000000000000000000070
:100090000000000000000000000000000000000060
:1000A0000000000000000000000000000000000050
:1000B0000000000000000000000000000000000040
:1000C0000000000000000000000000000000000030
:1000D0000000000000000000000000000000000020
:1000E0000000000000000000000000000000000010
:1000F0000000000000000000000000000000000000
:1001000000000000000000000000000000000000EF
:1001100000000000000000000000000000000000DF
:1001200000000000000000000000000000000000CF
:1001300000000000000000000000000000000000BF
:1001400000000000000000000000000000000000AF
:10015000000000000000000000000000000000009F
:10016000000000000000000000000000000000008F
:10017000000000000000000000000000000000007F
:08018000000000000000000077
:1001900010B5054C237833B9044B13B10448AFF3C1
:1001A00000800123237010BD6800002000000000C3
:1001B0007C3D000808B5034B1BB103490348AFF36E
:1001C000008008BD000000006C0000207C3D00089D
:1001D0004FF0FF0C1CEAD0521EBF1CEAD15392EA2A
:1001E0000C0F93EA0C0F6FD01A4480EA010C400206
:1001F00018BF5FEA41211ED04FF0006343EA501060
:1002000043EA5111A0FB01310CF00040B1F5000FA1
:100210003EBF490041EAD3715B0040EA010062F150
:100220007F02FD2A1DD8B3F1004F40EBC25008BF3A
:1002300020F00100704790F0000F0CF0004C08BF58
:1002400049024CEA502040EA51207F3AC2BFD2F125
:10025000FF0340EAC250704740F400004FF0000333
:10026000013A5DDC12F1190FDCBF00F0004070476D
:10027000C2F10002410021FA02F1C2F1200200FAAB
:1002800002FC5FEA310040F1000053EA4C0308BF72
:1002900020EADC70704792F0000F00F0004C02BFC3
:1002A000400010F4000F013AF9D040EA0C0093F03E
:1002B000000F01F0004C02BF490011F4000F013B98
:1002C000F9D041EA0C018FE70CEAD15392EA0C0F06
:1002D00018BF93EA0C0F0AD030F0004C18BF31F071
:1002E000004CD8D180EA010000F00040704790F047
:1002F000000F17BF90F0004F084691F0000F91F0EB
:10030000004F14D092EA0C0F01D142020FD193EAB0
:100310000C0F03D14B0218BF084608D180EA010038
:1003200000F0004040F0FE4040F40000704740F014
:10033000FE4040F44000704781F0004102E000BF01
:1003400083F0004330B54FEA41044FEA430594EA95
:10035000050F08BF90EA020F1FBF54EA000C55EAD0
:10036000020C7FEA645C7FEA655C00F0E2804FEAA1
:100370005454D4EB5555B8BF6D420CDD2C4480EA83
:10038000020281EA030382EA000083EA010180EAB3
:10039000020281EA0303362D88BF30BD11F0004F01
:1003A0004FEA01314FF4801C4CEA113102D0404237
:1003B00061EB410113F0004F4FEA03334CEA133372
:1003C00002D0524263EB430394EA050F00F0A7808A
:1003D000A4F10104D5F1200E0DDB02FA0EFC22FA85
:1003E00005F2801841F1000103FA0EF2801843FA79
:1003F00005F359410EE0A5F120050EF1200E012A6A
:1004000003FA0EFC28BF4CF0020C43FA05F3C018A7
:1004100051EBE37101F0004507D54FF0000EDCF120
:10042000000C7EEB00006EEB0101B1F5801F1BD3C9
:10043000B1F5001F0CD349085FEA30004FEA3C0CCD
:1004400004F101044FEA445212F5800F80F09A80C3
:10045000BCF1004F08BF5FEA500C50F1000041EBC7
:10046000045141EA050130BD5FEA4C0C404141EBCB
:100470000101013C28BFB1F5801FE9D291F0000FC6
:1004800004BF01460020B1FA81F308BF2033A3F175
:100490000B03B3F120020CDA0C3208DD02F1140C6C
:1004A000C2F10C0201FA0CF021FA02F10CE002F1A7
:1004B0001402D8BFC2F1200C01FA02F120FA0CFCA0
:1004C000DCBF41EA0C019040E41AA2BF01EB0451E9
:1004D000294330BD6FEA04041F3C1CDA0C340EDCE7
:1004E00004F11404C4F1200220FA04F001FA02F32A
:1004F00040EA030021FA04F345EA030130BDC4F1E8
:100500000C04C4F1200220FA02F001FA04F340EADC
:100510000300294630BD21FA04F0294630BD94F08D
:10052000000F83F4801306BF81F480110134013D74
:100530004EE77FEA645C18BF7FEA655C29D094EAE5
:10054000050F08BF90EA020F05D054EA000C04BF63
:100550001946104630BD91EA030F1EBF002100204E
:1005600030BD5FEA545C05D14000494128BF41F0ED
:10057000004130BD14F580043CBF01F5801130BD51
:1005800001F0004545F0FE4141F470014FF00000DC
:1005900030BD7FEA645C1ABF194610467FEA655C8D
:1005A0001CBF0B46024650EA013406BF52EA03352F
:1005B00091EA030F41F4002130BD00BF90F0000F1D
:1005C00004BF0021704730B54FF4806404F1320459
:1005D0004FF000054FF0000150E700BF90F0000F12
:1005E00004BF0021704730B54FF4806404F1320439
:1005F00010F0004548BF40424FF000013EE700BF09
:1006000042004FEAE2014FEA31014FEA02701FBF98
:1006100012F07F4393F07F4F81F06051704732F0CA
:100620007F4208BF704793F07F4F04BF41F4002121
:10063000704730B54FF4607401F0004521F000417F
:100640001CE700BF50EA010208BF704730B54FF009
:1006500000050AE050EA010208BF704730B511F00A
:10066000004502D5404261EB41014FF4806404F142
:1006700032045FEA915C3FF4D8AE4FF003025FEAC8
:10068000DC0C18BF03325FEADC0C18BF033202EB4C
:10069000DC02C2F1200300FA03FC20FA02F001FAA6
:1006A00003FE40EA0E0021FA02F11444BDE600BF49
:1006B00070B54FF0FF0C4CF4E06C1CEA11541DBFF8
:1006C0001CEA135594EA0C0F95EA0C0F00F0DEF8C3
:1006D0002C4481EA030621EA4C5123EA4C5350EAA8
:1006E000013518BF52EA033541F4801143F48013F9
:1006F00038D0A0FB02CE4FF00005E1FB02E506F08A
:100700000042E0FB03E54FF00006E1FB03569CF0DE
:10071000000F18BF4EF0010EA4F1FF04B6F5007FE4
:1007200064F5407404D25FEA4E0E6D4146EB060656
:1007300042EAC62141EA55514FEAC52040EA5E50DF
:100740004FEACE2EB4F1FD0C88BFBCF5E06F1ED889
:10075000BEF1004F08BF5FEA500E50F1000041EBC0
:10076000045170BD06F0004646EA010140EA02006D
:1007700081EA0301B4EB5C04C2BFD4EB0C0541EA8F
:10078000045170BD41F480114FF0000E013C00F3A4
:10079000AB8014F1360FDEBF002001F0004170BDC8
:1007A000C4F10004203C35DA0C341BDC04F11404E1
:1007B000C4F1200500FA05F320FA04F001FA05F26D
:1007C00040EA020001F0004221F0004110EBD3703A
:1007D00021FA04F642EB06015EEA430E08BF20EA66
:1007E000D37070BDC4F10C04C4F1200500FA04F309
:1007F00020FA05F001FA04F240EA020001F000419B
:1008000010EBD37041F100015EEA430E08BF20EA0D
:10081000D37070BDC4F1200500FA05F24EEA020E55
:1008200020FA04F301FA05F243EA020321FA04F084
:1008300001F0004121FA04F220EA020000EBD3703B
:100840005EEA430E08BF20EAD37070BD94F0000F3B
:100850000FD101F00046400041EB010111F4801F6F
:1008600008BF013CF7D041EA060195F0000F18BF20
:10087000704703F00046520043EB030313F4801F5C
:1008800008BF013DF7D043EA0603704794EA0C0F16
:100890000CEA135518BF95EA0C0F0CD050EA41062C
:1008A00018BF52EA4306D1D181EA030101F00041A9
:1008B0004FF0000070BD50EA410606BF10461946D1
:1008C00052EA430619D094EA0C0F02D150EA0136DD
:1008D00013D195EA0C0F05D152EA03361CBF10461E
:1008E00019460AD181EA030101F0004141F0FE41BD
:1008F00041F470014FF0000070BD41F0FE4141F441
:10090000780170BD70B54FF0FF0C4CF4E06C1CEA40
:1009100011541DBF1CEA135594EA0C0F95EA0C0FF5
:1009200000F0A7F8A4EB050481EA030E52EA0335B0
:100930004FEA013100F088804FEA03334FF08055D1
:1009400045EA131343EA12634FEA022245EA1115FE
:1009500045EA10654FEA00260EF000419D4208BFAF
:10096000964244F1FD0404F5407402D25B084FEA5C
:100970003202B61A65EB03055B084FEA32024FF408
:1009800080104FF4002CB6EB020E75EB030E22BF65
:10099000B61A754640EA0C005B084FEA3202B6EB25
:1009A000020E75EB030E22BFB61A754640EA5C00D4
:1009B0005B084FEA3202B6EB020E75EB030E22BF64
:1009C000B61A754640EA9C005B084FEA3202B6EB65
:1009D000020E75EB030E22BFB61A754640EADC0024
:1009E00055EA060E18D04FEA051545EA16754FEA86
:1009F00006164FEAC30343EA52734FEAC2025FEAA4
:100A00001C1CC0D111F4801F0BD141EA00014FF032
:100A100000004FF0004CB6E711F4801F04BF014303
:100A20000020B4F1FD0C88BFBCF5E06F3FF6AFAE1F
:100A3000B5EB030C04BFB6EB020C5FEA500C50F1AF
:100A4000000041EB045170BD0EF0004E4EEA113132
:100A500014EB5C04C2BFD4EB0C0541EA045170BD39
:100A600041F480114FF0000E013C90E645EA060E7D
:100A70008DE60CEA135594EA0C0F08BF95EA0C0FAB
:100A80003FF43BAF94EA0C0F0AD150EA01347FF4F3
:100A900034AF95EA0C0F7FF425AF104619462CE7CA
:100AA00095EA0C0F06D152EA03353FF4FDAE10462D
:100AB000194622E750EA410618BF52EA43067FF47E
:100AC000C5AE50EA41047FF40DAF52EA43057FF40E
:100AD000EBAE12E74FF0FF3C06E000BF4FF0010C19
:100AE00002E000BF4FF0010C4DF804CD4FEA410C7D
:100AF0007FEA6C5C4FEA430C18BF7FEA6C5C1BD04A
:100B000001B050EA410C0CBF52EA430C91EA030FCA
:100B100002BF90EA020F0020704710F1000F91EA27
:100B2000030F58BF994208BF90422CBFD8176FEAF5
:100B3000E37040F0010070474FEA410C7FEA6C5CC3
:100B400002D150EA013C07D14FEA430C7FEA6C5CCA
:100B5000D6D152EA033CD3D05DF8040B704700BFF6
:100B60008446104662468C461946634600E000BF44
:100B700001B5FFF7B7FF002848BF10F1000F01BD16
:100B80004DF808EDFFF7F4FF0CBF012000205DF8E1
:100B900008FB00BF4DF808EDFFF7EAFF34BF012066
:100BA00000205DF808FB00BF4DF808EDFFF7E0FFFF
:100BB00094BF012000205DF808FB00BF4DF808ED50
:100BC000FFF7CEFF94BF012000205DF808FB00BFB7
:100BD0004DF808EDFFF7C4FF34BF012000205DF899
:100BE00008FB00BF4FEA410212F5001215D211D5E1
:100BF0006FF47873B3EB625212D94FEAC12343F01A
:100C0000004343EA505311F0004F23FA02F018BF9B
:100C1000404270474FF00000704750EA013005D164
:100C200011F0004008BF6FF0004070474FF0000027
:100C3000704700BF4FEA4102B2F1E04324BFB3F571
:100C4000001CDCF1FE5C0DD901F0004C4FEAC00243
:100C50004CEA5070B2F1004F40EB830008BF20F027
:100C60000100704711F0804F21D113F13872BCBFE1
:100C700001F00040704741F480114FEA5252C2F136
:100C80001802C2F1200C10FA0CF320FA02F018BF7F
:100C900040F001004FEAC1234FEAD32303FA0CFCD2
:100CA00040EA0C0023FA02F34FEA4303CCE77FEA61
:100CB000625307D150EA01331EBF4FF0FE4040F4AB
:100CC0004000704701F0004040F0FE4040F400005A
:100CD000704700BF80F0004002E000BF81F000419B
:100CE00042001FBF5FEA410392EA030F7FEA226CD2
:100CF0007FEA236C6AD04FEA1262D2EB1363C1BF62
:100D0000D218414048404140B8BF5B42192B88BFD0
:100D1000704710F0004F40F4000020F07F4018BFF3
:100D2000404211F0004F41F4000121F07F4118BF13
:100D3000494292EA030F3FD0A2F1010241FA03FCBB
:100D400010EB0C00C3F1200301FA03F100F00043A3
:100D500002D5494260EB4000B0F5000F13D3B0F16B
:100D6000807F06D340084FEA310102F10102FE2ADA
:100D700051D2B1F1004F40EBC25008BF20F001004A
:100D800040EA03007047490040EB0000013A28BFE9
:100D9000B0F5000FEDD2B0FA80FCACF1080CB2EB6C
:100DA0000C0200FA0CF0AABF00EBC25052421843EA
:100DB000BCBFD0401843704792F0000F81F400018F
:100DC00006BF80F400000132013BB5E74FEA410362
:100DD0007FEA226C18BF7FEA236C21D092EA030FCE
:100DE00004D092F0000F08BF0846704790EA010F48
:100DF0001CBF0020704712F07F4F04D1400028BF75
:100E000040F00040704712F100723CBF00F5000056
:100E1000704700F0004343F0FE4040F4000070478C
:100E20007FEA226216BF08467FEA23630146420238
:100E300006BF5FEA412390EA010F40F4800070474B
:100E40004FF0000304E000BF10F0004348BF4042F1
:100E50005FEA000C08BF704743F0964301464FF02D
:100E600000001CE050EA010208BF70474FF0000389
:100E70000AE000BF50EA010208BF704711F00043CA
:100E800002D5404261EB41015FEA010C02BF84469A
:100E90000146002043F0B64308BFA3F18053A3F5F9
:100EA0000003BCFA8CF2083AA3EBC25310DB01FA40
:100EB00002FC634400FA02FCC2F12002BCF1004FC4
:100EC00020FA02F243EB020008BF20F00100704755
:100ED00002F1200201FA02FCC2F1200250EA4C00A9
:100EE00021FA02F243EB020008BF20EADC707047EF
:100EF0004FF0FF3C06E000BF4FF0010C02E000BFE6
:100F00004FF0010C4DF804CD4FEA40024FEA410387
:100F10007FEA226C18BF7FEA236C11D001B052EA3D
:100F2000530C18BF90EA010F58BFB2EB030088BF03
:100F3000C81738BF6FEAE17018BF40F00100704772
:100F40007FEA226C02D15FEA402C05D17FEA236C54
:100F5000E4D15FEA412CE1D05DF8040B704700BF9B
:100F6000844608466146FFE70FB5FFF7C9FF002832
:100F700048BF10F1000F0FBD4DF808EDFFF7F4FF6B
:100F80000CBF012000205DF808FB00BF4DF808ED04
:100F9000FFF7EAFF34BF012000205DF808FB00BF27
:100FA0004DF808EDFFF7E0FF94BF012000205DF849
:100FB00008FB00BF4DF808EDFFF7D2FF94BF0120FA
:100FC00000205DF808FB00BF4DF808EDFFF7C8FFF3
:100FD00034BF012000205DF808FB00BF00000000C6
:100FE00001F0FF01102A2BDB10F0070F08D010F8DA
:100FF000013B013A8B422DD010F0070F42B3F6D1DE
:10100000F0B441EA012141EA014122F007047FF0F6
:1010100000070023F0E80256083C85EA010586EA4D
:10102000010685FA47F5A3FA87F586FA47F6A5FA89
:1010300087F68EB9EED1F0BC01F0FF0102F0070295
:1010400032B110F8013B013A83EA010313B1F8D140
:101050000020704701387047002D06BF3546033821
:10106000073815F0010F07D1013015F4807F02BF5A
:10107000013015F4C03F0130F0BC0138704700BFAB
:101080002DE9F041234E1D46884617460FCE8AB003
:1010900005AC0FC43368236003AC1F4B05AA0521C0
:1010A000204600F090F92B788DF808306B788DF899
:1010B0000930AB788DF80A30EB788DF80B30049B53
:1010C000029A5B686E461A61B8F1000F09D094E885
:1010D00006003046012300F0D3F996E8030084E8C7
:1010E000030000F0B9FC94E80600304600F012FA64
:1010F00096E8030084E8030000F0B5FC204600F009
:10110000F1F82A463946722000F040FB00200AB070
:10111000BDE8F081983D00088400002030B5D3B0D0
:101120003049314C8C222FA801F080FD2F495022EC
:101130001BA801F07BFD0FCC6D460FC50FCC0FC572
:1011400094E80F00103485E80F000FCC0CAD0FC5EC
:101150000FCC0FC50FCC0FC594E8070085E807003A
:101160008C222FA9224801F061FD50221BA92148A1
:1011700001F05CFD204A6B461146032014461D68B1
:10118000C1F8F8505D68C1F8FC509D68C1F8005185
:101190000138DD68C1F8045103F1100301F11001B9
:1011A000EDD10CAB05211868C2F828015868C2F8C7
:1011B0002C0101399868C2F8300103F10C0302F1E7
:1011C0000C02F0D10D4B1A4642F8304B5A6003F135
:1011D000BC029A6003F58672DA6003F59E721A61AA
:1011E00053B030BDAC3D0008883E0008383E0008D2
:1011F000B40000204001002098000020840000205E
:1012000008B5002001F048FE01F0CAFDFFF786FF97
:1012100000F080FB00F0BEFB00F0FAFB00F0A4FA47
:10122000034A1021702000F085FA00F005FBFCE76E
:101230008110000830B5013B05460020002B00DA84
:1012400030BD25FA03F404F001044C4304EB4000E4
:10125000904203D3801A824298BF801A013BEDE787
:101260002DE9F04105460C4616461F4601F0C6FD25
:10127000804601F0C3FD54F8253056F8251005FBD3
:10128000000403FB08446A1C3B46B4FBF2F002FB7B
:101290001040BDE8F041FFF7CDBFF8B50446164653
:1012A0001F464D1E012D0DDC01F0A8FD002800F0A9
:1012B0000100B8BF4042636854F82020626044F8DF
:1012C0002030F8BD069B3A4628463146FFF7C8FF56
:1012D00054F8253054F8202044F8252044F82030D4
:1012E000013DDFE72DE9F843044600264FF01808DA
:1012F0002368B3421CDDF70000250FE008FB05F969
:101300004844406808B101F089FC62683A44536877
:101310004B44586908B101F081FC01356368DA1962
:10132000DB595068AB42E9DC01F078FC0136DFE7BD
:101330006068BDE8F84301F071BC2DE9F843151E63
:1013400004460F46984626DD4FEA8509484601F0D7
:101350005DFC0646484601F059FC87B1089A05FB3A
:1013600002F157F82820002302EB810252F82310E3
:1013700046F8231040F8233001339D42F6D1002374
:10138000A3604FF07C536061C4E90056E3602361C1
:101390002046BDE8F88300200646F0E738B504464D
:1013A000182048430D4601F031FCC4E900502046A6
:1013B00038BD38B50446C8000D4601F027FCC4E925
:1013C0000050204638BD2DE9F04F07468BB08846C7
:1013D00016469A46FFF7EDFF7D6800240DF12009BF
:1013E000444515DB0023D5F800C04FF0180E194610
:1013F0004FF000094FF07C509C4516DC4FF001097E
:101400004FF0180BC14538DB38460BB0BDE8F08F04
:1014100056F824104846FFF7C1FF99E8030005EB92
:10142000C40383E803000134DAE76E680EFB03F4BB
:101430003219315101335160C2F80890D060106107
:101440005161D9E7EC6800962A684B46514602A8DC
:10145000FFF773FF0DF1080CBCE80F000BFB06440F
:101460000FC49CE8030084E803000136AB68B34274
:10147000E8DC09F101090835C4E70026F6E70000B9
:101480002DE9F043224C93B002AF9C46964687E884
:10149000060006460FCC04AD0FC594E807000C34D7
:1014A00085E807000FCC0BAD0FC594E807005EF888
:1014B0003C4085E807000EEBCC0800256CB9BCF178
:1014C000000F02DD029B63451EDC97E8030086E8FF
:1014D0000300304613B0BDE8F08364080135EDE742
:1014E000D8F80400009509FB04F100EB010C0BABEC
:1014F0004158DCF8140004AAFFF7CFFE0134D8F8F5
:101500000030A342ECDCE0E74FF01809F7E700BF3A
:10151000F43E00082DE9F04F89B002AB83E80600E5
:10152000012307468846144605934FF0000A059BA1
:10153000434505DB3846C7E9008409B0BDE8F08FB4
:10154000059E0023013E069304EBC6061825059A66
:10155000069B54F832209A4203DC059B0133059325
:10156000E5E70599DDF818C00598069A04EBC00078
:1015700004EBC101436805FB02334A6805FB0C22FA
:101580009268DA600023079333680193079A019BFE
:1015900093422FDC0599DDF818C00598069A04EBF4
:1015A000C00004EBC101436805FB02334A6805FB38
:1015B0000C22D2681A61059B08F1FF329A42059A03
:1015C000069904EBC202536805FB01335DDDD86860
:1015D0005146FFF7DBFC002845D0059A069904EB3D
:1015E000C202536805FB0133C3F810A0069B013308
:1015F0000693ACE70598DDF81890079BDDF814B06A
:10160000069A0599009204EBC000069A406805FB13
:10161000090004EBC1014069496850F8233005987E
:10162000DDF8189004EBC00005FB021E40687168ED
:1016300005FB090905FB0311DEF80400096950F8F0
:10164000230004EBCB0BFEF7C3FDDBF80410009B7B
:1016500005FB0312D168FFF743FB079AC9F80C009A
:101660000132079292E70599DDF818C00598069AAD
:1016700004EBC00004EBC101436805FB02334A6878
:1016800005FB0C22D2681A61B0E7D86800F100406F
:10169000FEF7B6FF01F078F8059B069A04EBC3034A
:1016A0005B6805FB0239074B0022FEF74BFE024642
:1016B0000B4600200349FFF725F9FFF7BBFAC9F8ED
:1016C000100093E70000F03F0346014400208B42E6
:1016D00000D1704713F8012B5040082210F0800F02
:1016E0004FEA400018BF80F04D00013AC0B2F5D17A
:1016F000EDE730B50022044601238B4201D30020E0
:1017000030BD14F8015F15B99D1A85541A4601338E
:10171000DBB2F2E710B502780024034604701046ED
:10172000884200D202B910BD1A5C1C541044C0B2E9
:10173000F6E7000038B50B4D2B680F2B04DD612058
:1017400000F0B2F9012038BDFF2901D96220F7E786
:101750000C2404FB035401332071C4E902122B60F2
:101760000020F0E7FC01002008B5064A00217620A1
:10177000FFF7E0FFBDE80840034A00217720FFF7AC
:10178000D9BF00BFE31700080118000870B5C0B04A
:101790000C46002511468DF8010022460DF103008C
:1017A0008DF802408DF8005001F040FAA11CC9B23A
:1017B0000DF10100FFF788FF0DEB0403261D611DED
:1017C000D870C9B268460DF80650FFF792FF6C4614
:1017D00014F8010B013500F067F9AE42F8DA40B0B9
:1017E00070BD07B503230DF10702012172208DF8AA
:1017F0000730FFF7CBFF002003B05DF804FB0000CB
:1018000030B50C48017885B000220C24D3B28B424D
:1018100002F1010206DB6A467220FFF7B7FF0020E3
:1018200005B030BD04AD1D4404FB03031B7905F86E
:10183000103CEBE7FC0100202DE9F047C2B0002589
:1018400002AE8DF80750344600F014F906F8010B8B
:1018500058B905238DF807300DF1070201216520E5
:10186000FFF794FF42B0BDE8F0870135042DEBD1BE
:1018700029462046FFF74EFF254F61783A6880469B
:1018800000230C205FFA83F9914502DB07D1012385
:10189000E0E700FB0976013336798E42F2D1E37836
:1018A0000533434502DA0423D4E7354600F0E2F875
:1018B00060550028CDD0E3786E1C0433B342F4DACF
:1018C00000F0D8F8A0550028EDD1C8F1010151FA77
:1018D00086F1C9B25FFA86FA04EB0800FFF71AFF37
:1018E000AAF10201C9B20DF10900FFF7EDFE635D37
:1018F000834201D00223ADE70C2303FB0977E27892
:10190000FD68A17860786B44A8478DF80700A3E7CD
:10191000FC01002070B596B0002403264FF4A023EC
:101920000CA80125CDE90C631094149400F0D4F8B0
:101930000F23214602A8CDE90235CDE904440694DF
:1019400000F038FB114B5A6942F400225A615B697E
:10195000CDE9094603F400230D4C0193019B07A92F
:101960004FF4C0432046CDE9073500F0C9FB2A46B5
:1019700020464FF4005100F087FC2A464FF4804186
:10198000204600F081FC16B070BD00BF0010024080
:101990000008004810B54FF4C06288B00223CDE9BA
:1019A000032301210323CDE90513164C07230793D5
:1019B000636943F400336361636903F400330193A3
:1019C00003A94FF09040019B00F09AFB0E48DFF80E
:1019D0003CC04FF46133C0E900C30023C0E90233C7
:1019E000036183610C234361A36943F48043A361D2
:1019F000A36903F480430293029B00F099FD08B0B1
:101A000010BD00BF00100240C0020020003801409D
:101A1000104B30B55A6942F400325A615B6987B0A5
:101A200003F400330093009B4FF480540123CDE96D
:101A300001430025032301A94FF09040CDE9035352
:101A400000F05EFB2A4621464FF0904000F01CFC5F
:101A500007B030BD0010024001224FF480514FF01A
:101A6000904000F011BC00224FF480514FF09040A4
:101A700000F00ABC37B50A4D0A4C41F28833012206
:101A80000DF10701284600F0D4FD18B99DF80700B4
:101A900003B030BD236A43F008032362EDE700BFC3
:101AA000C00200200038014007B541F288338DF8AC
:101AB000070001220DF10701024800F064FD03B0A8
:101AC0005DF804FBC0020020024B1868421C1A603B
:101AD000704700BF3003002003682DE9F341D907A8
:101AE000044611D423689A0700F1868023681E07F4
:101AF00000F1F48023685D0700F14081E269002A6B
:101B000040F0CB81002021E09A494B6803F00C03A0
:101B1000042B07D04B6803F00C03082B19D14B683A
:101B2000DB0316D54FF4003393FAA3F2096893FA56
:101B3000A3F3B3FA83F303F01F03012202FA03F3C2
:101B40000B42CFD06368002BCCD1012002B0BDE89E
:101B5000F0816268B2F5803F24D10B6843F4803392
:101B60000B60CB6AA06823F00F030343CB624AB338
:101B7000FFF7AAFF4FF400360546012796FAA6F3B1
:101B80000A6896FAA6F3B3FA83F303F01F0307FA81
:101B900003F31342A6D1FFF797FF401B6428EDD94A
:101BA0000320D3E70B6832B923F480330B600B6852
:101BB00023F48023D4E7B2F5A02FF5D143F480239A
:101BC0000B60CAE7FFF780FF4FF400360546012798
:101BD00096FAA6F30A6896FAA6F3B3FA83F303F02B
:101BE0001F0307FA03F313423FF47CAFFFF76CFFC8
:101BF000401B6428ECD9D3E75E494B6813F00C0F07
:101C000007D04B6803F00C03082B21D14B68DF038E
:101C10001ED4022393FAA3F2086893FAA3F3B3FA4B
:101C200083F303F01F03012202FA03F3034202D0FD
:101C30002369934289D10868F82393FAA3F3B3FA8E
:101C400083F26369934020F0F80213430B604DE781
:101C50002269012502B395FAA5F3B3FA83F303F1E0
:101C6000845303F584139B0002271D60FFF72CFFAC
:101C7000064697FAA7F30A6897FAA7F3B3FA83F32D
:101C800003F01F0305FA03F31342D4D1FFF71CFF3F
:101C9000801B0228EDD983E795FAA5F3B3FA83F305
:101CA00003F1845303F584139B0002271A60FFF7A6
:101CB0000BFF064697FAA7F30A6897FAA7F3B3FA59
:101CC00083F303F01F0305FA03F313423FF40EAF4F
:101CD000FFF7FAFE801B0228ECD961E7A269254DC7
:101CE0002548012112B391FAA1F3B3FA83F3034417
:101CF0009B0002261960FFF7E7FE074696FAA6F357
:101D000096FAA6F396FAA6F36A6A96FAA6F3B3FAD7
:101D100083F303F01F0301FA03F313427FF4EAAEE7
:101D2000FFF7D2FEC01B0228E8D939E791FAA1F3E8
:101D3000B3FA83F303449B0002261A60FFF7C4FE44
:101D4000074696FAA6F396FAA6F396FAA6F36A6AF7
:101D500096FAA6F3B3FA83F303F01F0301FA03F331
:101D600013423FF4C7AEFFF7AFFEC01B0228E8D90D
:101D700016E700BF00100240208190108A49CB690D
:101D8000D80033D4CB6943F08053CB61CB6903F0E7
:101D900080530193019B0125844E3368DA0527D5D2
:101DA000E368012B34D10B6A43F001030B62FFF7A8
:101DB0008BFE022607464FF0010896FAA6F396FA24
:101DC000A6F3002B61D00A6A96FAA6F3B3FA83F35E
:101DD00003F01F0308FA03F313424ED0002D3FF423
:101DE0008DAECB6923F08053CB6187E60025D3E726
:101DF000336843F480733360FFF766FE0746336849
:101E0000DB05CDD4FFF760FEC01B6428F7D9C7E619
:101E10002BBB0B6A23F001030B620B6A23F0040354
:101E20000B62FFF751FE022607464FF0010896FAB3
:101E3000A6F396FAA6F363B30A6A96FAA6F3B3FA80
:101E400083F303F01F0308FA03F31342C6D0FFF72E
:101E50003BFE41F28833C01B9842E8D9A0E6052B2F
:101E60000B6A03D143F004030B629CE723F00103E8
:101E70000B620B6A23F0040398E7FFF725FE41F29B
:101E80008833C01B984298D98AE696FAA6F34A6A24
:101E90009AE796FAA6F34A6ACFE743494B6803F0FC
:101EA0000C03082B3FF451AE022A4FF0807354D13B
:101EB00093FAA3F3B3FA83F303F1845303F5841382
:101EC0009B0000221A60FFF7FFFDDFF8E480064662
:101ED0004FF00077012597FAA7F30A6897FAA7F35E
:101EE000B3FA83F303F01F0305FA03F313422ED171
:101EF000D4E908034A68034322F4741213434B6085
:101F00004FF0807393FAA3F3B3FA83F303F184538E
:101F100003F584139B00264F1D60FFF7D5FD4FF09E
:101F200000750446012695FAA5F30A6895FAA5F30B
:101F3000B3FA83F303F01F0306FA03F313427FF4AB
:101F4000E1ADFFF7C1FD001BB842ECD928E6FFF771
:101F5000BBFD801B4045BED922E693FAA3F3B3FA3A
:101F600083F303F1845303F584139B0000221A606A
:101F7000FFF7AAFD0E4F04464FF00075012695FAB3
:101F8000A5F30A6895FAA5F3B3FA83F303F01F03E8
:101F900006FA03F313423FF4B5ADFFF795FD001BBE
:101FA000B842ECD9FCE500BF0010024000700040D0
:101FB000400D0300504AF8B5136803F007038B4245
:101FC00004461BD32268900724D4D2072AD44A4A55
:101FD000136803F007038B427AD82068430700F1A7
:101FE000828010F0080014D0444A2169536823F419
:101FF000605343EAC103536000200AE0136823F0F2
:1020000007030B431360136803F007038B42D9D017
:102010000120F8BD3948A568436823F0F0032B433D
:102020004360D2E76268354D012A27D14FF400336F
:1020300093FAA3F0286893FAA3F3B3FA83F303F0B7
:102040001F0302FA03F30342E2D06B6823F0030399
:102050001A436A60FFF738FD6368012B064641F2B8
:1020600088371ED16B6803F00C03042BAFD0FFF749
:102070002BFD801BB842F5D90320CAE7022A0CBF0A
:102080004FF00073022393FAA3F02E6893FAA3F3A0
:10209000B3FA83F303F01F03012000FA03F3334282
:1020A000D2E7022B0FD16B6803F00C03082B8ED004
:1020B000FFF70AFD801BB842F5D9DDE7FFF704FD05
:1020C000801BB842D8D86B6813F00C0FF6D17EE7AE
:1020D000136823F007030B431360136803F007032F
:1020E0008B4295D179E70549E3684A6822F4E062BA
:1020F0001A434A6075E700BF00200240001002400A
:102100002DE9F74FDFF874815D4C00234FF0010992
:102110000A6832FA03F502D103B0BDE8F08F09FA7C
:1021200003FA1AEA020200F09E804D6825F0100EB4
:10213000BEF1020F14D14FEAD30C00EB8C0C03F06C
:10214000070BDCF820604FEA8B0B0F2707FA0BF721
:1021500026EA07070E6906FA0BF63E43CCF8206024
:10216000D0F800B04FEA430C032606FA0CF72BEA2E
:10217000070BFE4305F0030707FA0CF70EF1FF3ECD
:1021800047EA0B07BEF1010F076011D8876806EA1E
:10219000070ECF6807FA0CF747EA0E078760476813
:1021A00027EA0A0AC5F300179F4047EA0A07476073
:1021B000C76837408E6806FA0CF63E43C660EE00EC
:1021C00051D5D8F8186046F00106C8F81860D8F85C
:1021D000186023F0030707F1804706F0010607F5B2
:1021E0008037019603F0030E019EBE684FEA8E0E03
:1021F0004FF00F0C0CFA0EFCB0F1904F26EA0C0CCD
:1022000033D0204EB04232D006F58066B04230D096
:1022100006F58066B0422ED006F58066B0420CBF4F
:102220000426052606FA0EF646EA0C06BE60266867
:10223000D74315F4803F0CBF3E40164326606668C6
:1022400015F4003F0CBF3E4016436660A66815F4C7
:10225000801F0CBF3E401643A660E668AD0254BF27
:102260003E401643E660013352E70026DAE70126D6
:10227000D8E70226D6E70326D4E700BF00100240C5
:1022800000040140000400480AB181617047816286
:102290007047000002688168C36930B50569146839
:1022A0002943456924F41644294324F00C041943B6
:1022B000214311605168C468056A21F440512143EB
:1022C00051609468816924F430642943214391600A
:1022D00062498A4216D101F55841096B01F00301A8
:1022E0000139022900F2B2805D4CB3F5004F615C08
:1022F00077D1082972D8DFE801F0ACAC2471AC7159
:102300007171A40057498A422CD101F5E631096B5D
:1023100001F44031B1F5003F00F090800BD8002966
:1023200000F09480B1F5803F00F09080B3F5004F4D
:1023300054D0012015E0B1F5403FF7D1B3F5004F7F
:1023400066D141684B0803F1F47303F59043B3FB86
:10235000F1F300209BB223F00F01C3F342030B43C0
:10236000D36030BD40498A4210D101F5E431096B98
:1023700001F44021B1F5002F60D004D8002965D0C8
:10238000B1F5802FD0E7B1F5402FD6E737498A4223
:1023900010D101F5E231096B01F44011B1F5001FD4
:1023A0004CD004D8002951D0B1F5801FBCE7B1F55D
:1023B000401FC2E72E498A42B8D101F5E031096BCE
:1023C00001F44001B1F5000F38D004D800293DD008
:1023D000B1F5800FA8E7B1F5400FAEE7012000236B
:1023E000B9E70829A5D801A353F821F0292400084A
:1023F0002924000811240008332300082924000898
:102400003323000833230008332300083324000853
:1024100041684B0803F5740303F51053B3FBF1F364
:102420009BB2D36000209CE741684B0803F5E103B1
:10243000F4E741684B0803F50043EFE7B3F5004FBD
:10244000F7D141684B0803F5803380E7B3F5004FBF
:10245000EAD141684B0803F5610378E70038014091
:102460002C3F00080044004000480040004C004061
:1024700000500040F8B5069F044615461E462268E7
:10248000D36931EA03030CBF01230023AB4201D01F
:10249000002014E07B1CF3D097B923681A6822F45B
:1024A000D0721A609A6822F001029A60202384F8A0
:1024B000693084F86A30002384F868300320F8BD5E
:1024C000FFF702FB801BB842D9D9E6E737B50446CF
:1024D0000021C166FFF7F8FA23681B681A07054652
:1024E00017D423681B685B070AD56FF07E430093FF
:1024F00000222B464FF480012046FFF7BBFFA0B916
:102500002023002084F8693084F8680084F86A3059
:102510000CE06FF07E4300930A4603464FF400112F
:102520002046FFF7A7FF0028DBD0032003B030BD13
:1025300010B5044628B390F8693003F0FF020BB9D8
:1025400080F868202268242384F86930136823F017
:10255000010313602046FFF79DFE012811D0236878
:102560005A6822F490425A609A6822F02A029A60CD
:102570001A6842F0010220461A60BDE81040FFF7D9
:10258000A5BF012010BDF7B51E4690F86930202B7D
:102590000D46044611464AD1002D46D0002A44D0AB
:1025A00090F86830012B42D0012380F86830002376
:1025B000C366212380F86930FFF786FAA4F850102B
:1025C0000746A4F85210B4F8522092B262B90096AD
:1025D0003B4640212046FFF74DFF98B9202384F861
:1025E000693084F868000EE0B4F852200096013A91
:1025F00092B2A4F852203B46002280212046FFF7E9
:1026000039FF10B1032003B0F0BDA3682268B3F511
:10261000805F07D123692BB935F8023BC3F3080368
:102620001385D0E715F8013BFAE70120EBE702201C
:10263000E9E72DE9F3411E4690F86A30202B0D465C
:10264000044611465CD1002D58D0002A56D090F88F
:102650006830012B54D0012380F8683003684FF0B4
:10266000FF321A620023C366222380F86A30FFF724
:102670002BFAA368A4F85810B3F5805F8046A4F83D
:102680005A1015D123698BB940F2FF13A4F85C30BE
:10269000B4F85C70B4F85A0080B280B9202384F892
:1026A0006A3084F8680002B0BDE8F081FF23EDE7EE
:1026B000002BEDD12369002BF8D07F23E6E7B4F897
:1026C0005A200096013A92B2A4F85A2043460022BA
:1026D00020212046FFF7CEFEA0B9A2682368B2F5FC
:1026E000805F06D1226922B99B8C3B4025F8023BD2
:1026F000D0E79B8C3B4005F8013BCBE70120D2E7BC
:102700000220D0E70320CEE70A4A116808B5034645
:1027100009B9094911601068694603448B4206D91A
:1027200000F04AFA0C2303604FF0FF3008BD13603D
:10273000FCE700BF3803002050030020002103E025
:102740000B4B5B58435004310A480B4B42189A42DA
:10275000F6D30A4A02E0002313600432084B9A427F
:10276000F9D3AFF3008000F02DFAFEF749FDFEE744
:10277000D040000800000020680000206800002011
:102780004C030020FEE70000F8B504460D4600F0BB
:102790003BF81B4B93F90030013306460F4614D02B
:1027A0002046294600F002FA78B111A3D3E90023AC
:1027B00020462946FEF70CFA88B90FA3D3E9002377
:1027C00020462946FEF7E6F910B930463946F8BDED
:1027D00000F0F2F92223036000260027F5E700F05D
:1027E000EBF92223074F03600026EEE7AFF30080EA
:1027F000EF39FAFE422E864051302DD5104987C060
:10280000000000200000F07F2DE9F04FD44F21F0B0
:102810000042BA4287B005460C464FEAD17612D93B
:10282000D04FBA422BD9C1F313030343024640F001
:102830005781002E00F0EE8000252C4628462146C8
:1028400007B0BDE8F08FC84B9A4255D8C74B9A42A3
:1028500000F2E580ACA3D3E90023FDF773FDC44B80
:102860000022FEF7B5F9002800F0D980284621465D
:10287000BF4B0022FDF766FD05460C46CAE0A4A347
:10288000D3E90023FEF7A4F9002840F03381A2A386
:10289000D3E9002328462146FEF77CF90028CBD156
:1028A000B44B284603EBC60621469DA3D3E900237B
:1028B000FDF7FEFED6E90023FDF744FDFEF792F991
:1028C0000190FDF78BFE98A3D3E9002306460F463F
:1028D000FDF7EEFE02460B4628462146FDF730FD89
:1028E00093A3D3E900238046894630463946FDF755
:1028F000DFFECDE9020117E09F4B9A42D0D89F4BF3
:1029000003EBC603D3E90023FDF71AFD9C4BF4004B
:102910002344D3E90034C6F1010ACDE90234AAEB1D
:102920000603804689460193DDE902234046494675
:10293000FDF706FD02460B4682468B4605460C46D1
:10294000FDF7B6FE7CA3D3E9002306460F46FDF74C
:10295000AFFE7BA3D3E90023FDF7F2FC32463B46F2
:10296000FDF7A6FE78A3D3E90023FDF7EBFC324682
:102970003B46FDF79DFE76A3D3E90023FDF7E0FC7F
:1029800032463B46FDF794FE73A3D3E90023FDF7DF
:10299000D9FC32463B46FDF78BFE0B4602465946B4
:1029A0005046FDF7CDFC019B06460F46CDE9046776
:1029B000002B6DD032463B4650465946FDF778FE17
:1029C000324604460D463B4600204FF08041FDF75D
:1029D000B7FC02460B4620462946FDF793FF024608
:1029E0000B46DDE90201FDF7ABFC42464B46FDF725
:1029F000A7FC02460B4600205D49FDF7A1FC019CA7
:102A00006FF47F739C420246C0F2BC8001EB04531A
:102A100005461C462846214607B0BDE8F08F2A46E9
:102A2000234628462146FDF743FE43A3D3E900236E
:102A300006460F46FDF73CFE41A3D3E90023FDF710
:102A40007FFC32463B46FDF733FE3FA3D3E900232C
:102A5000FDF778FC32463B46FDF72AFE3CA3D3E95E
:102A60000023FDF76DFC32463B46FDF721FE3AA3FD
:102A7000D3E90023FDF766FC32463B46FDF718FE1E
:102A800002460B4628462146FDF75AFCCDE90401D3
:102A9000DDE90489284642464B462146FDF708FEFB
:102AA000002206460F46404649464FF08043FDF758
:102AB00047FC02460B4630463946FDF723FF2A46BF
:102AC0002346FDF73DFC02460B4600202849FDF752
:102AD00037FC05460C462846214607B0BDE8F08F76
:102AE0000B46FDF72FFC05460C462846214607B04D
:102AF000BDE8F08F04A3D3E9002310461946FDF783
:102B0000D7FD05460C4685E79C7500883CE4377E7A
:102B1000EF39FAFE422E864051302DD5104987C03C
:102B2000FE822B654715F73F0000E0FE422EE63F90
:102B3000763C7935EF39EA3DD0A4BE726937663EFE
:102B4000F16BD2C541BDBB3E2CDE25AF6A56113FAD
:102B500093BDBE166CC1663F3E5555555555C53F94
:102B6000412E8640FFFFEF7F422ED63FFFFF2F3ED4
:102B70000000F03F303F0008B1A2F03F403F0008A6
:102B8000503F0008019800F57A7A01EB0A5310468D
:102B9000194600224FF0B873FDF78AFD05460C4632
:102BA0002846214607B0BDE8F08F00BF41F0004045
:102BB00000F58010C00F7047014B1868704700BFC8
:102BC0000400002070B50D4D0D4C641BA4100026B0
:102BD000A64209D10B4D0C4C01F0D0F8641BA41097
:102BE0000026A64205D170BD55F8043B9847013632
:102BF000EEE755F8043B98470136F2E7C840000875
:102C0000C8400008C8400008CC400008024B0146FC
:102C1000186800F06BB800BF04000020024B0146AA
:102C2000186800F019B800BF040000200A4491425F
:102C300000F1FF3300D1704710B511F8014B03F8D4
:102C4000014F9142F9D110BD02440346934200D195
:102C5000704703F8011BF9E738B50546002941D054
:102C600051F8043C0C1F002BB8BFE41800F04CFCDA
:102C70001D4A136833B9636014602846BDE83840C4
:102C800000F048BCA34208D9206821188B4201BF3C
:102C900019685B6809182160EDE71A465B680BB19B
:102CA000A342FAD911685018A0420BD12068014400
:102CB000501883421160E0D118685B68536001448A
:102CC0001160DAE702D90C232B60D6E720682118BF
:102CD0008B4204BF19685B68636004BF09182160F8
:102CE0005460CAE738BD00BF3C030020F8B5CD1CD6
:102CF00025F0030508350C2D38BF0C25002D0646A0
:102D000001DBA94203D90C2333600020F8BD00F099
:102D1000FBFB21490A6814469CB9204F3B6823B944
:102D20002146304600F0A8F838602946304600F0C9
:102D3000A3F8431C23D10C233360304600F0EAFB98
:102D4000E3E723685B1B17D40B2B03D923601C44D8
:102D5000256004E06368A2420CBF0B6053603046FC
:102D600000F0D8FB04F10B00231D20F00700C21A6D
:102D7000CCD01B1AA350C9E722466468CCE7C41C18
:102D800024F00304A042E3D0211A304600F074F886
:102D90000130DDD1CFE700BF3C030020400300201D
:102DA00038B5104B1D68AB6B0446B3B91820FFF75C
:102DB0002DFF0246A86320B90B4B0C48422100F0BE
:102DC00045F90B490B4BC0E900130B4B83600B23F8
:102DD000838100210120C2E90401AB6B00221C6148
:102DE0005A6138BD04000020643F00087B3F0008A2
:102DF0000E33CDAB34126DE6ECDE0500164B10B58C
:102E00001C68A36BB3B91820FFF700FF0246A0634C
:102E100020B9124B12484E2100F018F91149124BFB
:102E2000C0E90013114B83600B2383810021012033
:102E3000C2E90401A46B0E4A206963690D4942434B
:102E400001FB0322A0FB0101431C42EB0100C4E98A
:102E5000043020F0004010BD04000020643F000852
:102E60007B3F00080E33CDAB34126DE6ECDE05007F
:102E70002DF451582D7F954C38B5064D002304464E
:102E800008462B60FFF740FC431C02D12B6803B1BE
:102E9000236038BD480300201FB50B4B04460022B9
:102EA0001868694600F0B6FA002805DA4FF0FF32DC
:102EB0004FF0FF33CDE90023DDE900010CB1C4E997
:102EC000000104B010BD00BF04000020F8B50E469C
:102ED0001446054618B183690BB900F0EBF9214B94
:102EE0009C422BD16C68A369A360A3891A072FD5D4
:102EF00023696BB323692068C01A6369F6B2834201
:102F0000374604DC2146284600F040F930BBA36870
:102F1000013BA36023685A1C22601E706369013064
:102F2000834204D0A389DB0706D50A2E04D12146AB
:102F3000284600F02BF988B93846F8BD0A4B9C4268
:102F400001D1AC68CFE7094B9C4208BFEC68CAE7E7
:102F50002146284600F00CF80028CBD04FF0FF3770
:102F6000EAE700BF544000087440000834400008FD
:102F7000324B70B51D6806460C4625B1AB6913B9D6
:102F8000284600F097F92E4B9C420FD16C68A3891C
:102F9000B4F90C2019072CD4DD0611D409233360B1
:102FA00042F04003A3814FF0FF303EE0254B9C42AE
:102FB00001D1AC68EBE7244B9C4208BFEC68E6E724
:102FC000580712D5616B41B104F14403994202D014
:102FD0003046FFF741FE00236363A38923F02403F7
:102FE000A3810023636023692360A38943F008035E
:102FF000A38123694BB9A38903F42073B3F5007F40
:1030000003D02146304600F03FFAA089B4F90C20E5
:1030100010F001030AD00023A36063695B42A3613F
:10302000236943B910F08000BAD170BD810758BF41
:103030006369A360F4E70020F7E700BF0400002005
:103040005440000874400008344000081FB514467E
:103050001A46094B1B680546D8684CB1074B0091CE
:10306000CDE9013406492B4600F0A2F900F09AFDA3
:10307000044B1C46F3E700BF04000020F83F0008A3
:1030800005400008334000088A89F8B50546100756
:103090000C4657D44B68002B04DC0B6C002B01DC76
:1030A0000020F8BDE66A002EFAD0002312F4805208
:1030B0002F682B6032D0606DA3895A0705D56368ED
:1030C000C01A636B0BB1236CC01A00230246E66A78
:1030D000216A2846B047431CA38906D129681D29C7
:1030E0002CD8294ACA40D60728D500226260D904C4
:1030F0002269226004D5421C01D12B6803B96065A6
:10310000616B2F600029CBD004F14403994202D0B7
:103110002846FFF7A1FD00206063C2E7216A012372
:103120002846B047411CC7D12B68002BC4D01D2BAB
:1031300001D0162B01D12F60B2E7A38943F04003E1
:10314000A381AEE70F69002FAAD093070E6808BFCE
:103150004B690F6018BF0023F61B8B60002E9FDDAC
:10316000216AD4F828C033463A462846E04700286A
:1031700006DCA38943F04003A3814FF0FF3090E7C2
:103180000744361AEAE700BF0100402038B50B6952
:1031900005460C4613B90025284638BD18B1836989
:1031A0000BB900F087F8144B9C421BD16C68B4F942
:1031B0000C30002BEFD0626ED00704D4990502D4F6
:1031C000A06D00F03AF928462146FFF75DFF636ED7
:1031D000DA070546E0D4A3899B05DDD4A06D00F095
:1031E0002DF9D9E7054B9C4201D1AC68DFE7044BD0
:1031F0009C4208BFEC68DAE75440000874400008BD
:1032000034400008002310B50446C0E90033C0E98B
:103210000433836081814366C28183611946082239
:103220005C30FFF711FD054B6362054BA362054B54
:10323000E362054B2462236310BD00BFF93A000826
:103240001B3B0008533B0008773B0008014900F096
:10325000C1B800BF8D31000870B568224D1E5543BE
:103260000E4605F17401FFF741FD044640B100210F
:10327000C0E900160C30A06005F16802FFF7E4FC1D
:10328000204670BD014800F0D8B800BF45030020BB
:10329000014800F0D3B800BF45030020014800F00A
:1032A000CCB800BF46030020014800F0C7B800BFFB
:1032B0004603002010B50446FFF7F0FFA3691BB1D9
:1032C000BDE81040FFF7F0BFC4E912332365134B8C
:1032D000134A1B68A262A34204BF0123A3612046D4
:1032E00000F020F86060204600F01CF8A060204646
:1032F00000F018F80022E06004216068FFF782FF08
:10330000A06801220921FFF77DFFE0680222122157
:10331000FFF778FF0123A361D2E700BF603F0008F9
:103320004D320008F8B50746FFF7ACFF1E4B1E688C
:10333000B36913B93046FFF7BDFF4836D6E901340B
:10334000013B03D533680BB33668F7E7B4F90C508B
:10335000D5B9164BE36004F15800656600F06CF8CF
:10336000FFF796FFC4E90155C4E904552560A5613E
:103370000822294604F15C00FFF766FCC4E90D55FC
:10338000C4E912552046F8BD6834D9E7042138460F
:10339000FFF762FF044630600028D5D1FFF778FFC1
:1033A0000C233B60EEE700BF603F00080100FFFF19
:1033B0000EB403B5014603AB054853F8042B00686F
:1033C000019300F0D5F802B05DF804EB03B070474C
:1033D000040000202DE9F8430646884600F1480421
:1033E0000027D4E90195B9F1010905D52468002C1D
:1033F000F7D13846BDE8F883AB89012B07D9B5F979
:103400000E30013303D029463046C04707436835A4
:10341000E9E7000038B5074D002304460846114689
:103420002B6000F079FC431C02D12B6803B12360B0
:1034300038BD00BF4803002070477047704770B523
:103440000E46B1F90E10002996B014461D4608DA52
:10345000B6F90C3000222A601A0610D44FF48063AB
:103460000EE06A4600F0B6FB0028F1DB019A02F498
:103470007042A2F500535A425A412A60EEE74023B7
:103480000020236016B070BD8B8973B59D0706467A
:103490000C4607D504F147032360236101236361D0
:1034A00002B070BD01AB6A46FFF7C9FF009905463F
:1034B0003046FFF71BFC48B9B4F90C309A05EFD43D
:1034C00023F0030343F00203A381E3E70D4BB36250
:1034D000A389206043F08003A381009B6361019B6B
:1034E00020615BB1B4F90E10304600F085FB28B1C5
:1034F000A38923F0030343F00103A381A0890543BB
:10350000A581CDE74D3200080148FFF796BF00BF07
:10351000440300200148FFF791BF00BF440300208F
:103520009368013B002B10B4936007DA9469A342BF
:1035300001DB0A2902D110BCFFF7C8BC1368581C74
:1035400010601970084610BC7047F8B506460F4663
:103550001446D518AC4201D1002007E014F8011B35
:103560003A463046FFF7DCFF431CF3D1F8BD0000BC
:103570002DE9F04F0D469DB014469846064618B109
:1035800083690BB9FFF796FE894B9D421BD1756885
:103590006B6ED90705D4AB899A0502D4A86DFFF7E5
:1035A0004CFFAB891B0701D52B69EBB92946304687
:1035B000FFF7DEFCC0B16B6EDC070ED54FF0FF30BD
:1035C0001DB0BDE8F08F7B4B9D4201D1B568DFE7B0
:1035D000794B9D4208BFF568DAE7AB899805EDD4D1
:1035E000A86DFFF72BFFE9E70023099320238DF84F
:1035F0002930CDF80C803023DFF8C0818DF82A30D7
:103600004FF0010923469A4613F8012B0AB1252AE7
:10361000F9D1BAEB040B0BD05B4622462946304663
:10362000FFF793FF013000F0AA80099A5A440992EB
:103630009AF80030002B00F0A28000234FF0FF32F8
:10364000CDE905230AF1010A049307938DF853305D
:103650001A935446052214F8011B5848FDF7C0FC84
:10366000049AD8B9D10644BF20238DF853301307EC
:1036700044BF2B238DF853309AF800302A2B15D0F5
:10368000079A544600204FF00A0C214611F8013BDE
:10369000303B092B4ED9B0B1079214E0A0EB0803E0
:1036A00009FA03F313430493A246D2E7039B191DBF
:1036B0001B680391002BBBBF5B4242F002020793E1
:1036C0000793B8BF049223782E2B0CD163782A2B52
:1036D00035D1039B1A1D1B680392002BB8BF4FF016
:1036E000FF3302340593DFF8D8A021780322504637
:1036F000FDF776FC40B14023A0EB0A0003FA00F08E
:10370000049B03430134049314F8011B2D488DF8E6
:1037100028100622FDF764FC00283FD02A4B1BBB73
:10372000039B073323F0070308330393099B3B44B0
:10373000099367E70CFB02320C460120A5E7002342
:103740000134059319464FF00A0C204610F8012B5E
:10375000303A092A03D9002BC5D00591C3E70CFBE9
:10376000012104460123F0E703AB00932A46174BDF
:1037700004A93046AFF300800746781CD6D16B6EA3
:10378000D90705D4AB899A0502D4A86DFFF756FE78
:10379000AB895B063FF512AF099811E703AB0093C5
:1037A0002A460A4B04A9304600F080F8E4E700BF3F
:1037B0005440000874400008344000089440000859
:1037C0009A4000089E400008000000004B350008A9
:1037D0002DE9F047164699468A680B69DDF8208086
:1037E0009342B8BF1346336091F8432007460C4616
:1037F0000AB1013333602368990642BF336802334C
:103800003360256815F0060506D104F1190AE3684E
:1038100032689B1AAB4226DC94F84320131E2268C0
:1038200018BF012392062BD404F1430249463846BF
:10383000C04701301ED02368E568326803F00603F4
:10384000042B08BFAD1AA36822690CBF25EAE575F1
:1038500000259342C4BF9B1AED1800261A34B542C6
:103860001AD1002008E00123524649463846C04795
:10387000013003D14FF0FF30BDE8F0870135C6E7D6
:10388000E1185A1C302081F84300224494F8451076
:1038900082F843100233C7E70123224649463846DF
:1038A000C0470130E6D00136D9E700002DE9FF47D7
:1038B0000F7E0C9D782F914680460C469A4601F16A
:1038C000430207D8622F0AD8002F00F0D880582F63
:1038D00000F0A38004F1420584F842703AE0A7F1B9
:1038E0006303152BF6D801A151F823F045390008E0
:1038F00059390008D5380008D5380008D5380008EF
:10390000D538000859390008D5380008D5380008DE
:10391000D5380008D5380008653A0008893900080C
:10392000473A0008D5380008D5380008873A00081B
:10393000D538000889390008D5380008D53800087E
:103940004F3A00082B681A1D1B682A6004F14205D3
:1039500084F842300123A3E020682968060601F1BB
:1039600004030AD50E682B60002E03DA2D2376425D
:1039700084F843305E480A2319E00E682B6010F08B
:10398000400F18BF36B2EFE72B682068191D296079
:10399000010601D51E6802E04606FBD51E88544884
:1039A0006F2F0CBF08230A23002184F84310656899
:1039B000A560002DA2BF216821F0040121600EB98D
:1039C000002D4DD01546B6FBF3F103FB1167C75D23
:1039D00005F8017D3746BB420E46F4D9082B0BD1C2
:1039E0002368DE0708D5236961689942DEBF30236A
:1039F00005F8013C05F1FF35521B2261CDF800A00E
:103A00004B4603AA21464046FFF7E2FE01304CD167
:103A10004FF0FF3004B0BDE8F087354881F84570BD
:103A20002968236851F8046B29601D0614D5DF0747
:103A300044BF43F0200323601EB9236823F0200312
:103A400023601023B0E7236843F02003236078232A
:103A5000284884F84530E3E7590648BFB6B2E6E7A0
:103A60001546BBE72B6826686169181D2860350676
:103A70001B6801D5196002E07006FBD51980002390
:103A800023611546BAE72B681A1D2A601D68626813
:103A900000212846FDF7A4FA08B1401B6060636866
:103AA0002361002384F84330A8E723692A46494666
:103AB0004046D0470130ABD023689B0713D4E06861
:103AC000039B9842B8BF1846A4E7012332464946F3
:103AD0004046D04701309BD00135E36803995B1A1B
:103AE000AB42F2DCEBE7002504F11906F5E700BF75
:103AF000A5400008B640000810B50C46B1F90E10FC
:103B000000F09CF80028ABBF636DA3891B1823F459
:103B10008053ACBF6365A38110BD2DE9F0411F4602
:103B20008B89DB0505460C46164605D5B1F90E1006
:103B30000223002200F070F8A389B4F90E1023F4D8
:103B40008053A38132463B462846BDE8F04100F051
:103B500017B810B50C46B1F90E1000F05DF8431C13
:103B6000A38915BF606523F4805343F48053A38178
:103B700018BFA38110BDB1F90E1000F01BB80000F2
:103B800038B5074D04460846114600222A601A46F9
:103B900000F0EAF8431C02D12B6803B1236038BD62
:103BA0004803002008B5062000F082F8012000F04C
:103BB000E3F8000038B5064D0023044608462B60A4
:103BC00000F092F8431C02D12B6803B1236038BD8A
:103BD0004803002038B5074D002304460846114627
:103BE0002B6000F089F8431C02D12B6803B12360DD
:103BF00038BD00BF4803002038B5064D00230446F9
:103C000008462B6000F090F8431C02D12B6803B1EA
:103C1000236038BD4803002038B5074D04460846E8
:103C2000114600222A601A4600F08EF8431C02D189
:103C30002B6803B1236038BD4803002038B5074D19
:103C400004460846114600222A601A4600F084F80D
:103C5000431C02D12B6803B1236038BD4803002008
:103C60001F2938B504460D4604D9162303604FF0CA
:103C7000FF3038BD426C12B152F821304BB92046AA
:103C800000F030F82A4601462046BDE8384000F0F2
:103C900017B8012B0AD0591C03D116230360012049
:103CA000E7E7002442F82540284698470020E0E74F
:103CB000024B01461868FFF7D3BF00BF0400002085
:103CC00038B5074D00230446084611462B6000F026
:103CD00033F8431C02D12B6803B1236038BD00BF09
:103CE0004803002000F010B8024B58221A604FF031
:103CF000FF30704748030020024B58221A604FF0F3
:103D0000FF30704748030020024B58221A604FF0E2
:103D1000FF30704748030020024B58221A604FF0D2
:103D2000FF30704748030020024B58221A600020E1
:103D3000704700BF48030020024B58221A604FF022
:103D4000FF30704748030020024B58221A604FF0A2
:103D5000FF30704748030020024B58221A604FF092
:103D6000FF30704748030020024B58221A604FF082
:103D7000FF30704748030020FEE700BFF8B500BFE2
:103D8000F8BC08BC9E467047F8B500BFF8BC08BC3C
:043D90009E46704794
:103D98000700000005000000040000000300000008
:103DA800050000003D0AB73F48E1FABEA4707D3F18
:103DB8003D0A57BE8FC2F53D0AD7A33C8FC275BDD9
:103DC80052B89EBEE17AD43F1F858BBF1F856B3FDB
:103DD8009A99B93F1F852BBF5C8F823F0000403FF7
:103DE8000AD763BF0AD7833F9A99B9BF295C8F3F27
:103DF800E17A14BFF628DC3FE17AF4BF0000A03F67
:103E08001F85EB3ED7A3F03FF628DCBE85EB91BFBC
:103E1800A4707D3F85EBB13F85EB11BFE17AD4BF3C
:103E280052B89E3E48E17A3FAE47813F5C8F42BF21
:103E3800F628BCBF295C0F3FCDCCEC3FC3F568BF6B
:103E48001F856B3E8FC2953FD7A3B0BFEC51783F1B
:103E5800AE47213F295C0FBEAE4761BF1F858B3F30
:103E6800F628DCBF3D0A573EC3F5C83F7B14EE3F3A
:103E780014AE87BF6666E63E000040BF5C8F823F97
:103E88006666E63E85EBF1BF3D0AD73FD7A3703F94
:103E9800E17A94BEA4709D3FF628BCBFC3F5A83E46
:103EA800B81EC53FAE47E13DAE4761BF5C8FE23FFC
:103EB80052B89E3FC3F5C8BF0AD7633FF628DCBE99
:103EC800E17AF43FB81E85BF8FC2F53D85EBB13F5F
:103ED800AE47E1BFC3F5A8BF48E17A3FD7A3F0BE1C
:103EE8006666863F5C8F42BEF628DC3F0100000014
:103EF80001000000010000000300000002000000B3
:103F080001000000040000000100000001000000A2
:103F18000100000003000000030000000100000091
:103F28000200000004080200000000000000E03F5A
:103F3800000000000000E0BF0000E0FE422EE63F67
:103F48000000E0FE422EE6BF763C7935EF39EA3DC7
:103F5800763C7935EF39EABD080000205245454ED8
:103F680054206D616C6C6F63207375636365656461
:103F78006564002F6D6E742F776F726B7370616359
:103F8800652F776F726B73706163652F4743432D9D
:103F980031302D706970656C696E652F6A656E6B5E
:103FA800696E732D4743432D31302D706970656CF0
:103FB800696E652D34385F32303230313132345FDA
:103FC800313630363138303634312F7372632F6ED4
:103FD80065776C69622F6E65776C69622F6C6962B0
:103FE800632F7374646C69622F72616E642E630050
:103FF8002C2066756E6374696F6E3A200061737366
:10400800657274696F6E2022257322206661696C5F
:1040180065643A2066696C6520222573222C206C21
:10402800696E65202564257325730A000000000069
:104038000000000000000000000000000000000078
:104048000000000000000000000000000000000068
:104058000000000000000000000000000000000058
:104068000000000000000000000000000000000048
:104078000000000000000000000000000000000038
:10408800000000000000000000000000232D302B7D
:104098002000686C4C006566674546470030313241
:1040A8003334353637383941424344454600303198
:1040B80032333435363738396162636465660000F7
:0440C800B501000836
:0440CC009101000856
:1040D000FF0000000800002000000000544000081D
:1040E0007440000834400008000000000000000098
:1040F00000000000000000000000000000000000C0
:1041000000000000000000000000000000000000AF
:10411000000000000000000000000000000000009F
:10412000000000000000000000000000000000008F
:08413000000000000000000087
:040000050800273D8B
:00000001FF
